:020000021000EC
:10F000000C9446F80C9458F80C9458F80C9458F852
:10F010000C9458F80C9458F80C9458F80C9458F830
:10F020000C9458F80C9458F80C9458F80C9458F820
:10F030000C9458F80C9458F80C9458F80C9458F810
:10F040000C9458F80C9458F80C9458F80C9458F800
:10F050000C9458F80C9458F80C9458F80C9458F8F0
:10F060000C9458F80C9458F80C9458F80C9458F8E0
:10F070000C9458F80C9458F80C9458F80C9458F8D0
:10F080000C9458F80C9458F80C9458F811241FBE9E
:10F09000CFEFD0E4DEBFCDBF12E0A0E0B1E001C011
:10F0A0001D92A930B107E1F70E9479F90C9457FB42
:10F0B0000C9400F89091C00095FFFCCF8093C6009F
:10F0C00008951F93282F332727FD3095207F307018
:10F0D00094E0359527959A95E1F72A3014F0295A4E
:10F0E00001C0205D182F1F701A3014F0195A01C08A
:10F0F000105D822F0E945AF8812F0E945AF81F91AA
:10F100000895EF92FF920F931F932898EE24FF2407
:10F11000870113C00894E11CF11C011D111D81E041
:10F12000E81689E0F8068DE3080780E0180728F064
:10F13000E0910101F091020109958091C00087FFE3
:10F14000E9CF289A8091C6001F910F91FF90EF9010
:10F1500008950F931F930E9481F8082F0E945AF878
:10F160000E9481F8182F0E945AF8013614F00755B2
:10F1700003C000330CF00053113614F0175503C0D0
:10F1800010330CF01053802F8295807F810F1F91D8
:10F190000F91089590E007C02091C00027FFFCCF99
:10F1A0002091C6009F5F9817B8F308951F93182FFA
:10F1B0000E9481F8803251F484E10E945AF8812F34
:10F1C0000E945AF880E10E945AF80CC08091000118
:10F1D0008F5F80930001853029F4E0910101F09167
:10F1E000020109951F9108950E9481F8803239F437
:10F1F00084E10E945AF880E10E945AF808958091B3
:10F2000000018F5F80930001853029F4E0910101B6
:10F21000F091020109950895DF93CF9300D000D0BB
:10F22000CDB7DEB7882309F481E090E03DC0289A8D
:10F2300019821A821B821C820CC029813A814B815F
:10F240005C812F5F3F4F4F4F5F4F29833A834B8342
:10F250005C8329813A814B815C8120386EE33607DB
:10F2600060E0460760E0560740F3289819821A824A
:10F270001B821C820CC029813A814B815C812F5FEB
:10F280003F4F4F4F5F4F29833A834B835C832981E4
:10F290003A814B815C8120306AEF360760E0460797
:10F2A00060E0560740F39F5F981709F619821A82AB
:10F2B0001B821C820BC089819A81AB81BC81019623
:10F2C000A11DB11D89839A83AB83BC8389819A81F7
:10F2D000AB81BC81803021E7920722E0A20720E0C9
:10F2E000B20748F30F900F900F900F90CF91DF91DE
:10F2F0000895CF92DF92EF92FF920F931F93CF93D7
:10F30000DF93000094B714BE809160008861809301
:10F3100060001092600091FD05C0E0910101F09144
:10F320000201099589E18093C4001092C50088E12B
:10F330008093C10086E08093C2005098589A209A2A
:10F3400083E00E940CF981E00E940CF90E9481F890
:10F35000803309F441C08133E1F40E9481F88032A6
:10F3600009F097C184E10E945AF881E40E945AF89A
:10F3700086E50E945AF882E50E945AF880E20E94CF
:10F380005AF889E40E945AF883E50E945AF880E509
:10F390000BC1803439F40E9481F88638E8F00E946D
:10F3A00081F81AC0813499F40E9481F8803811F4F0
:10F3B00082E06CC1813811F481E068C1823811F4B7
:10F3C00080E164C1883909F060C183E05FC18234A3
:10F3D00031F484E10E94CAF80E94F4F8B7CF853472
:10F3E00011F485E0F7CF8035B9F3813531F40E940F
:10F3F000F4F888E080936000FFCF823569F38535AB
:10F4000049F40E9481F8809303010E9481F880935F
:10F410000401E2CF863521F484E00E94CAF835C1A8
:10F42000843609F0C7C00E9481F8809306020E94CA
:10F4300081F880930502809108028E7F80930802F4
:10F440000E9481F8853429F48091080281608093BC
:10F45000080205E011E0F801119281E0E538F807B3
:10F46000D9F745E0C42E41E0D42EEE24FF2408C095
:10F470000E9481F8F60181936F010894E11CF11C50
:10F480008091050290910602E816F90688F30E9421
:10F4900081F8803209F0FDC08091080280FD17C01C
:10F4A00020C0F999FECF209103013091040132BDB3
:10F4B00021BDF80141918F0140BDFA9AF99A2F5F61
:10F4C0003F4F3093040120930301019602C080E076
:10F4D00090E020910502309106028217930708F30D
:10F4E00062C08091030190910401880F991F90934D
:10F4F0000401809303018091050280FF09C080917F
:10F5000005029091060201969093060280930502EF
:10F51000F999FECF1127E0910301F0910401C5E0B4
:10F52000D1E08091050290910602103091F4009193
:10F53000570001700130D9F303E000935700E895BC
:10F540000091570001700130D9F301E10093570099
:10F55000E895099019900091570001700130D9F396
:10F5600001E000935700E8951395103898F01127A3
:10F570000091570001700130D9F305E00093570066
:10F58000E8950091570001700130D9F301E1009333
:10F590005700E8953296029709F0C7CF103011F066
:10F5A0000296E5CF112484E10E945AF880E10E947E
:10F5B0005AF8CCCE843709F055C00E9481F8809368
:10F5C00006020E9481F8809305020E9481F89091C2
:10F5D0000802853421F49160909308020DC09E7F4B
:10F5E000909308028091030190910401880F991F64
:10F5F00090930401809303010E9481F8803209F006
:10F60000A5CE84E10E945AF800E010E023C080916A
:10F61000080280FF0BC0F999FECF80910301909101
:10F62000040192BD81BDF89A80B507C081FD07C075
:10F63000E0910301F091040184910E945AF88091B5
:10F6400003019091040101969093040180930301BA
:10F650000F5F1F4F8091050290910602081719074E
:10F66000B0F2A4CF853779F40E9481F8803289F412
:10F6700084E10E945AF88EE10E945AF887E90E94BC
:10F680005AF885E091CF863721F480E00E94D6F8C1
:10F690005DCE809100018F5F80930001853009F07D
:10F6A00055CEE0910101F091020109954FCEF894F9
:02F6B000FFCF8A
:040000031000F000F9
:00000001FF
