:10F800000C943E7C0C94507C0C94507C0C94507C5A
:10F810000C94507C0C94507C0C94507C0C94507C38
:10F820000C94507C0C94507C0C94507C0C94507C28
:10F830000C94507C0C94507C0C94507C0C94507C18
:10F840000C94507C0C94507C0C94507C0C94507C08
:10F850000C94507C0C94507C0C94507C0C94507CF8
:10F860000C94507C0C94507C0C94507C0C94507CE8
:10F870000C94507C0C94507C0C94507C11241FBE32
:10F88000CFEFD0E1DEBFCDBF12E0A0E0B1E001C01C
:10F890001D92A930B107E1F70E94D17D0C944880F8
:10F8A0000C94007C282F332727FD3095207F307063
:10F8B0003595279535952795359527953595279530
:10F8C0002A30A4F0295A8F708A3074F0895A9091A6
:10F8D000C00095FFFCCF2093C6009091C00095FF1B
:10F8E000FCCF8093C6000895805DF1CF205DEBCF03
:10F8F0009091C00095FFFCCF8093C6000895EF92D1
:10F90000FF920F931F932898EE24FF248701809184
:10F91000C00087FD17C00894E11CF11C011D111DDA
:10F9200081E0E81689E0F8068DE3080780E0180713
:10F9300070F3E0910101F091020109958091C000FE
:10F9400087FFE9CF289A8091C6001F910F91FF9001
:10F95000EF9008950F931F930E947F7C182F809142
:10F96000C00085FFFCCF012F1093C6000E947F7C52
:10F970009091C00095FFFCCF982F8093C600113660
:10F980007CF0012F075581368CF4803314F0982FCA
:10F990009053802F8295807F890F1F910F9108953A
:10F9A00010338CF3012F005381367CF3982F975539
:10F9B000802F8295807F890F1F910F910895882352
:10F9C00051F020E09091C00097FFFCCF9091C600CD
:10F9D0002F5F2817B8F308951F93182F0E947F7C7C
:10F9E000803249F0809100018F5F80930001853063
:10F9F000C1F01F9108958091C00085FFFCCF84E184
:10FA00008093C6008091C00085FFFCCF1093C60094
:10FA10008091C00085FFFCCF80E18093C6001F91DC
:10FA20000895E0910101F091020109951F91089557
:10FA30000E947F7C803241F0809100018F5F809333
:10FA40000001853081F008958091C00085FFFCCFD2
:10FA500084E18093C6008091C00085FFFCCF80E1E7
:10FA60008093C6000895E0910101F091020109958B
:10FA70000895DF93CF9300D000D0CDB7DEB78823B1
:10FA800009F088C041E050E020E030E0289A198277
:10FA90001A821B821C8289819A81AB81BC81803849
:10FAA0006EE3960760E0A60760E0B607B8F48981C8
:10FAB0009A81AB81BC810196A11DB11D89839A8376
:10FAC000AB83BC8389819A81AB81BC8180386EE332
:10FAD000960760E0A60760E0B60748F32898198209
:10FAE0001A821B821C8289819A81AB81BC81803001
:10FAF0006AEF960760E0A60760E0B607B8F4898170
:10FB00009A81AB81BC810196A11DB11D89839A8325
:10FB1000AB83BC8389819A81AB81BC8180306AEFE1
:10FB2000960760E0A60760E0B60748F32F5F3F4FF7
:10FB3000241735070CF4AACF19821A821B821C8263
:10FB400089819A81AB81BC81803021E7920722E0D4
:10FB5000A20720E0B207B8F489819A81AB81BC8109
:10FB60000196A11DB11D89839A83AB83BC838981D2
:10FB70009A81AB81BC81803061E7960762E0A6077D
:10FB800060E0B60748F30F900F900F900F90CF9161
:10FB9000DF910895482F50E0141615060CF474CF29
:10FBA000CBCFAF92BF92CF92DF92EF92FF920F93A3
:10FBB0001F93CF93DF93000094B714BE8091600031
:10FBC0008861809360001092600091FFDBC189E141
:10FBD0008093C4001092C50088E18093C10086E044
:10FBE0008093C2005098589A209A83E00E94397DF1
:10FBF00081E00E94397D74E1A72E60E1B62E0E945B
:10FC00007F7C8033D9F1813309F448C0803409F412
:10FC1000A4C0813409F490C0823499F1853409F488
:10FC20007FC0803559F1813509F4A6C1823531F1A3
:10FC30008535E1F0863509F49CC0843609F4A4C00A
:10FC4000843709F40FC1853709F471C1863709F487
:10FC500080C0809100018F5F80930001853079F62C
:10FC6000E0910101F09102010995C9CF0E947F7CCA
:10FC7000809303010E947F7C809304010E94187D81
:10FC8000BECF90E08091C00087FFFCCF8091C6007E
:10FC90009F5F9431B9F70E94187DB1CF0E947F7C9D
:10FCA0008032B9F68091C00085FFFCCFA092C600DB
:10FCB0008091C00085FFFCCF81E48093C6008091D5
:10FCC000C00085FFFCCFA6E5A093C6008091C000D0
:10FCD00085FFFCCFB2E5B093C6008091C00085FFE0
:10FCE000FCCFE0E2E093C6008091C00085FFFCCF2E
:10FCF000F9E4F093C6008091C00085FFFCCF83E556
:10FD00008093C6008091C00085FFFCCFA0E5A09342
:10FD1000C6008091C00085FFFCCFB092C6006FCFB7
:10FD200095E08091C00087FFFCCF8091C600915084
:10FD3000C1F70E94187D63CF0E947F7C803809F450
:10FD4000EAC0813809F4EFC0823809F4E8C0883984
:10FD500061F080E00E94EC7C52CF0E947F7C86386C
:10FD600008F48CCF0E947F7C89CF83E00E94EC7CDA
:10FD700046CF90E08091C00087FFFCCF8091C60005
:10FD80009F5F9430B9F7E5CF0E947F7C8093060295
:10FD90000E947F7C80930502809108028E7F809371
:10FDA00008020E947F7C853409F409C155E0C52E04
:10FDB00051E0D52EF6011192B1E0E538FB07D9F7F5
:10FDC00080910502909106020097A1F045E0E42E93
:10FDD00041E0F42E00E010E00E947F7CF701819367
:10FDE0007F010F5F1F4F8091050290910602081757
:10FDF000190790F30E947F7C803209F02ACF80910E
:10FE0000080280FFE2C080910502909106020097EF
:10FE1000F1F0E0910301F09104019F0140E050E016
:10FE2000F999FECF32BD21BDD6012D916D0120BDC6
:10FE3000FA9AF99A9F012F5F3F4FF901309304011D
:10FE4000209303014F5F5F4F4817590748F3809194
:10FE5000C00085FFFCCFA092C6008091C00085FF46
:10FE6000FCCF5BCF0E947F7C809306020E947F7C48
:10FE7000809305020E947F7C853409F49AC08091AA
:10FE800008028E7F80930802809103019091040103
:10FE9000880F991F90930401809303010E947F7C37
:10FEA000803209F0ACCE8091C00085FFFCCFA092DB
:10FEB000C60020E030E080910502909106020DC05E
:10FEC00041FF6BC0E0910301F09104013196F09382
:10FED0000401E09303012F5F3F4F2817390708F013
:10FEE00057C04091080240FFEBCFF999FECFE09157
:10FEF0000301F0910401F2BDE1BDF89A40B55091C3
:10FF0000C00055FFFCCF4093C6003196F09304012A
:10FF1000E0930301E0CF82E00E94EC7C70CE80E1B0
:10FF20000E94EC7C6CCE81E00E94EC7C68CE0E944A
:10FF30007F7C803209F08DCE8091C00085FFFCCFA0
:10FF4000A092C6008091C00085FFFCCFBEE1B093B7
:10FF5000C6008091C00085FFFCCFE6E9E093C600B3
:10FF60008091C00085FFFCCFFAE0F093C60080913D
:10FF7000C00085FFFCCFD1CE0E94187D88E0809321
:10FF80006000FFCFE0910101F091020109951FCEC1
:10FF90008091C00085FFFCCFC0CEE0910301F091BD
:10FFA000040144915091C00055FFFCCF4093C6001E
:10FFB0008DCF809108028160809308026FCF80917D
:10FFC0000802816080930802F1CE80910301909134
:10FFD0000401880F991F909304018093030180917D
:10FFE000050280FF09C080910502909106020196EA
:10FFF0009093060280930502F999FECF1127E091B4
:020000021000EC
:100000000301F0910401C5E0D1E0809105029091D7
:100010000602103091F40091570001700130D9F3BD
:1000200003E000935700E8950091570001700130FC
:10003000D9F301E100935700E895099019900091D8
:10004000570001700130D9F301E000935700E895A3
:100050001395103898F01127009157000170013066
:10006000D9F305E000935700E8950091570001701F
:100070000130D9F301E100935700E89532960297D9
:1000800009F0C7CF103011F00296E5CF1124DFCE72
:04009000F894FFCF12
:040000030000F80001
:00000001FF
