:020000021000EC
:10F000000C9446F80C9465F80C9465F80C9465F82B
:10F010000C9465F80C9465F80C9465F80C9465F8FC
:10F020000C9465F80C9465F80C9465F80C9465F8EC
:10F030000C9465F80C9465F80C9465F80C9465F8DC
:10F040000C9465F80C9465F80C9465F80C9465F8CC
:10F050000C9465F80C9465F80C9465F80C9465F8BC
:10F060000C9465F80C9465F80C9465F80C9465F8AC
:10F070000C9465F80C9465F80C9465F80C9465F89C
:10F080000C9465F80C9465F80C9465F811241FBE77
:10F09000CFEFD0E4DEBFCDBF11E0A0E0B1E0E0E80B
:10F0A000FBEF01E00BBF02C007900D92A230B10749
:10F0B000D9F712E0A2E0B1E001C01D92AD30B10776
:10F0C000E1F70E94E5F90C94BEFD0C9400F8982F2E
:10F0D0009595959595959595905D8F708A301CF1D5
:10F0E000282F295A80910201813019F0823071F065
:10F0F00008958091C00085FFFCCF9093C600809159
:10F10000C00085FFFCCF2093C60008958091C80001
:10F1100085FFFCCF9093CE008091C80085FFFCCF87
:10F120002093CE000895282F205DDCCF982F80916A
:10F130000201813019F0823041F008958091C000C1
:10F1400085FFFCCF9093C60008958091C80085FF8D
:10F15000FCCF9093CE000895EF92FF920F931F93F0
:10F1600080910201813069F1823031F080E01F919D
:10F170000F91FF90EF900895EE24FF248701809176
:10F18000C80087FD17C00894E11CF11C011D111D6A
:10F1900081E2E81681EAF80687E0080780E01807B0
:10F1A00070F3E0910401F091050109958091C80088
:10F1B00087FFE9CF8091CE001F910F91FF90EF90D4
:10F1C0000895EE24FF2487018091C00087FD17C0B9
:10F1D0000894E11CF11C011D111D81E2E81681EA71
:10F1E000F80687E0080780E0180770F3E091040153
:10F1F000F091050109958091C00087FFE9CF8091CA
:10F20000C6001F910F91FF90EF9008950E94ACF8F7
:10F21000982F80910201813049F0823091F091362F
:10F220006CF490330CF09053892F08958091C000B6
:10F2300085FFFCCF9093C60091369CF39755892F9C
:10F2400008958091C80085FFFCCF9093CE00E7CF52
:10F250001F930E9406F9182F0E9406F91295107F3D
:10F26000810F1F910895982F20910201992339F061
:10F27000213031F0223061F091509923C9F708957F
:10F280008091C00087FFFCCF8091C6009150F5CFE0
:10F290008091C80087FFFCCF8091CE009150EDCFC8
:10F2A0001F93182F0E94ACF8803249F0809103011F
:10F2B0008F5F80930301853091F11F9108958091B4
:10F2C00002018130B9F08230C1F78091C80085FF1A
:10F2D000FCCF84E18093CE008091C80085FFFCCFF5
:10F2E0001093CE008091C80085FFFCCF80E1809311
:10F2F000CE00E3CF8091C00085FFFCCF84E18093F6
:10F30000C6008091C00085FFFCCF1093C60080919D
:10F31000C00085FFFCCF80E18093C600CECFE09196
:10F320000401F091050109951F9108950E94ACF820
:10F33000803241F0809103018F5F8093030185301B
:10F3400029F1089580910201813089F08230C9F756
:10F350008091C80085FFFCCF84E18093CE0080912E
:10F36000C80085FFFCCF80E18093CE000895809196
:10F37000C00085FFFCCF84E18093C6008091C0006F
:10F3800085FFFCCF80E18093C6000895E0910401E1
:10F39000F09105010995089548EC50E08823A1F00B
:10F3A000289A28EE33E0FA013197F1F721503040E6
:10F3B000D1F7289828EE33E0FA013197F1F7215080
:10F3C0003040D1F7815061F708952F923F924F92CC
:10F3D0005F926F927F928F929F92AF92BF92CF92E5
:10F3E000DF92EF92FF920F931F93CF93DF93000072
:10F3F00081E08093020187E08093C4001092C500F1
:10F400001092C00086E08093C20088E18093C10022
:10F41000209A81E00E94CCF914E1812EBEE17B2E7E
:10F42000A7E96A2EF5E05F2EE0E14E2E33243394F7
:10F4300071E4272E0E94ACF88033B1F1813309F4D6
:10F440004FC0803409F4D2C0813409F4F4C082344E
:10F4500071F1853409F4D4C0803531F1823521F160
:10F46000813511F1853509F4F5C0863509F405C1FA
:10F47000843609F425C1843709F4A5C1853709F418
:10F480007CC2863709F4E2C0809103018F5F8093CC
:10F490000301853079F6E0910401F09105010995A9
:10F4A0000E94ACF8803351F60E9496F9C3CF2091A8
:10F4B000020193E105C0223061F09923A9F3915034
:10F4C0002130C9F78091C00087FFFCCF8091C60032
:10F4D000F4CF8091C80087FFFCCF8091CE00EDCFA4
:10F4E0000E94ACF8803281F680910201813009F4EB
:10F4F00040C0823009F09ECF8091C80085FFFCCFCC
:10F500008092CE008091C80085FFFCCF2092CE0073
:10F510008091C80085FFFCCFE6E5E093CE008091A6
:10F52000C80085FFFCCF82E58093CE008091C800A3
:10F5300085FFFCCFF0E2F093CE008091C80085FFFC
:10F54000FCCFE9E4E093CE008091C80085FFFCCFBA
:10F5500083E58093CE008091C80085FFFCCFF0E565
:10F56000F093CE008091C80085FFFCCF4092CE0082
:10F5700061CF8091C00085FFFCCF8092C600809152
:10F58000C00085FFFCCF2092C6008091C00085FF9F
:10F59000FCCF86E58093C6008091C00085FFFCCF3C
:10F5A000F2E5F093C6008091C00085FFFCCFE0E259
:10F5B000E093C6008091C00085FFFCCF89E4809372
:10F5C000C6008091C00085FFFCCFF3E5F093C60034
:10F5D0008091C00085FFFCCFE0E5E093C6008091FC
:10F5E000C00085FFFCCF4092C60024CF0E94ACF83B
:10F5F000863808F459CF0E94ACF80E9496F91ACFC9
:10F600002091020194E0213041F0223069F09923E9
:10F6100009F44ACF91502130C1F78091C00087FF93
:10F62000FCCF8091C600F3CF8091C80087FFFCCF4C
:10F630008091CE00ECCF0E94ACF88038D1F08138B8
:10F64000D9F1823809F4BBC0883979F080E00E9492
:10F6500050F9F0CE0E94ACF8809306010E94ACF8FD
:10F66000809307010E9496F9E5CE83E00E9450F94D
:10F67000E1CE82E00E9450F9DDCE0E94ACF88033EA
:10F6800009F4E0C12091020192E0213039F02230EA
:10F6900061F09923D9F291502130C9F78091C000CF
:10F6A00087FFFCCF8091C600F4CF8091C80087FF10
:10F6B000FCCF8091CE00EDCF81E00E9450F9BACE10
:10F6C0000E94ACF8809309020E94ACF88093080273
:10F6D00080910C028E7F80930C020E94ACF88534DE
:10F6E00009F495C18091080290910902892B89F053
:10F6F00000E010E00E94ACF8F801E85FFE4F808364
:10F700000F5F1F4F80910802909109020817190797
:10F7100088F30E94ACF8803209F0B6CE80910C02DA
:10F7200080FFA1C12091060130910701220F331FF4
:10F7300030930701209306018091080290910902FD
:10F74000892BE1F000E010E0F801E85FFE4FC9010D
:10F7500060810E94B0FD20910601309107012F5F6A
:10F760003F4F30930701209306010F5F1F4F809199
:10F770000802909109020817190730F380910201DD
:10F78000813081F0823009F055CE8091C80085FF2C
:10F79000FCCF8092CE008091C80085FFFCCF4092C4
:10F7A000CE0048CE8091C00085FFFCCF8092C6007D
:10F7B0008091C00085FFFCCF4092C6003BCE80E127
:10F7C0000E9450F937CE0E94ACF8809309020E9443
:10F7D000ACF880930802209106013091070137FDB3
:10F7E00022C180910C028D7F80930C02220F331F67
:10F7F00030930701209306010E94ACF8853409F488
:10F800000CC180910C028E7F80930C020E94ACF898
:10F81000803209F00FCED090020181E0D81609F4B1
:10F8200068C0E2E0DE1609F46BC0A0900802B09058
:10F830000902A114B10409F485C080910C02CC2402
:10F84000C394C82292E0992E982200E010E018C0DC
:10F850002091060130910701F9019491F1E0DF1642
:10F8600079F182E0D81699F12F5F3F4F309307016D
:10F87000209306010F5F1F4F0A151B0508F062C099
:10F88000CC2009F044C0992019F320910601309151
:10F890000701C901A0E0B0E080509040AF4FBF4FDA
:10F8A000ABBFFC019791E1E0DE16D1F0F2E0DF168C
:10F8B000D9F68091C80085FFFCCF9093CE00D4CFBD
:10F8C0008091C00085FFFCCF9093C600CDCF809182
:10F8D000C80085FDF2CF8091C80085FFF8CFEDCF3D
:10F8E0008091C00085FDF0CF8091C00085FFF8CFEA
:10F8F000EBCF8091C00085FFFCCF8092C60095CFF2
:10F900008091C80085FFFCCF8092CE008ECFE09022
:10F910000601F0900701C7010E94A8FD982FF1E0B1
:10F92000DF16E9F082E0D81609F10894E11CF11C19
:10F93000F0920701E09206010F5F1F4F0A151B05A9
:10F9400008F49ECF81E0D81609F473C0E2E0DE1619
:10F9500009F070CD8091C80085FFFCCF07CE809163
:10F96000C00085FFFCCF9093C600DFCF8091C80018
:10F9700085FFFCCF9093CE00D8CF0E94ACF88032A8
:10F9800009F082CD80910201813011F1823009F0BD
:10F9900051CD8091C80085FFFCCF8092CE00809130
:10F9A000C80085FFFCCF7092CE008091C80085FF13
:10F9B000FCCF6092CE008091C80085FFFCCF5092B2
:10F9C000CE008091C80085FFFCCF4092CE0032CDA2
:10F9D0008091C00085FFFCCF8092C6008091C0005E
:10F9E00085FFFCCF7092C6008091C00085FFFCCFE0
:10F9F0006092C6008091C00085FFFCCF5092C60087
:10FA00008091C00085FFFCCF4092C60013CD80914D
:10FA10000C02816080930C0265CE80910C028160A3
:10FA200080930C02F3CE80910C02826080930C02D2
:10FA3000DDCE8091C00085FDD6CD8091C00085FFD0
:10FA4000F8CFD1CD0E94ACF80E94ACF8182F0E94DC
:10FA5000ACF8112309F478C0113009F471C085E0C5
:10FA60000E9450F9E7CC809107018823880F880B0A
:10FA7000832180930B028BBF809106019091070137
:10FA8000880F991F909307018093060180910802C7
:10FA900080FF09C08091080290910902019690931D
:10FAA000090280930802F894F999FECF1127E0919A
:10FAB0000601F0910701C8E0D1E080910802909121
:10FAC0000902103091F40091570001700130D9F310
:10FAD00003E000935700E895009157000170013052
:10FAE000D9F301E100935700E8950990199000912E
:10FAF000570001700130D9F301E000935700E895F9
:10FB00001395103898F011270091570001700130BB
:10FB1000D9F305E000935700E89500915700017074
:10FB20000130D9F301E100935700E895329602972E
:10FB300009F0C7CF103011F00296E5CF11241ECE88
:10FB400087E90E9450F976CC8EE10E9450F972CC80
:10FB5000F999FECF92BD81BDF89A992780B5089595
:10FB6000262FF999FECF1FBA92BD81BD20BD0FB6D9
:10FB7000F894FA9AF99A0FBE01960895F894FFCF77
:02FB8000800003
:040000031000F000F9
:00000001FF
